{
  "contractName": "TenderSpace",
  "abi": [
    {
      "inputs": [
        {
          "internalType": "uint256",
          "name": "_tenderFee",
          "type": "uint256"
        }
      ],
      "stateMutability": "nonpayable",
      "type": "constructor"
    },
    {
      "inputs": [],
      "name": "nextTenderIndex",
      "outputs": [
        {
          "internalType": "uint256",
          "name": "",
          "type": "uint256"
        }
      ],
      "stateMutability": "view",
      "type": "function",
      "constant": true
    },
    {
      "inputs": [],
      "name": "tenderFee",
      "outputs": [
        {
          "internalType": "uint256",
          "name": "",
          "type": "uint256"
        }
      ],
      "stateMutability": "view",
      "type": "function",
      "constant": true
    },
    {
      "inputs": [
        {
          "internalType": "string",
          "name": "_title",
          "type": "string"
        },
        {
          "internalType": "string",
          "name": "_description",
          "type": "string"
        },
        {
          "internalType": "uint256",
          "name": "_maxParticipantsNumber",
          "type": "uint256"
        },
        {
          "internalType": "uint256",
          "name": "_reward",
          "type": "uint256"
        }
      ],
      "name": "createTender",
      "outputs": [],
      "stateMutability": "payable",
      "type": "function",
      "payable": true
    },
    {
      "inputs": [
        {
          "internalType": "uint256",
          "name": "_tenderIndex",
          "type": "uint256"
        },
        {
          "internalType": "address",
          "name": "_participant",
          "type": "address"
        }
      ],
      "name": "addCommitionParticipant",
      "outputs": [],
      "stateMutability": "nonpayable",
      "type": "function"
    },
    {
      "inputs": [
        {
          "internalType": "uint256",
          "name": "_tenderIndex",
          "type": "uint256"
        }
      ],
      "name": "releaseTender",
      "outputs": [],
      "stateMutability": "nonpayable",
      "type": "function"
    },
    {
      "inputs": [
        {
          "internalType": "uint256",
          "name": "_tenderIndex",
          "type": "uint256"
        },
        {
          "internalType": "string",
          "name": "offer",
          "type": "string"
        }
      ],
      "name": "participate",
      "outputs": [],
      "stateMutability": "nonpayable",
      "type": "function"
    },
    {
      "inputs": [
        {
          "internalType": "uint256",
          "name": "_tenderIndex",
          "type": "uint256"
        }
      ],
      "name": "getTenderOffers",
      "outputs": [
        {
          "internalType": "address[]",
          "name": "",
          "type": "address[]"
        },
        {
          "internalType": "string[]",
          "name": "",
          "type": "string[]"
        }
      ],
      "stateMutability": "view",
      "type": "function",
      "constant": true
    },
    {
      "inputs": [
        {
          "internalType": "uint256",
          "name": "_tenderIndex",
          "type": "uint256"
        },
        {
          "internalType": "address",
          "name": "_participantAddress",
          "type": "address"
        }
      ],
      "name": "vote",
      "outputs": [],
      "stateMutability": "nonpayable",
      "type": "function"
    },
    {
      "inputs": [
        {
          "internalType": "uint256",
          "name": "_tenderIndex",
          "type": "uint256"
        }
      ],
      "name": "findWinner",
      "outputs": [],
      "stateMutability": "nonpayable",
      "type": "function"
    },
    {
      "inputs": [
        {
          "internalType": "uint256",
          "name": "_tenderIndex",
          "type": "uint256"
        }
      ],
      "name": "getWinner",
      "outputs": [
        {
          "internalType": "address",
          "name": "",
          "type": "address"
        },
        {
          "internalType": "string",
          "name": "",
          "type": "string"
        }
      ],
      "stateMutability": "view",
      "type": "function",
      "constant": true
    },
    {
      "inputs": [
        {
          "internalType": "uint256",
          "name": "_tenderIndex",
          "type": "uint256"
        }
      ],
      "name": "getTenderOwner",
      "outputs": [
        {
          "internalType": "address",
          "name": "",
          "type": "address"
        }
      ],
      "stateMutability": "view",
      "type": "function",
      "constant": true
    },
    {
      "inputs": [
        {
          "internalType": "uint256",
          "name": "_tenderIndex",
          "type": "uint256"
        }
      ],
      "name": "getTenderTitle",
      "outputs": [
        {
          "internalType": "string",
          "name": "",
          "type": "string"
        }
      ],
      "stateMutability": "view",
      "type": "function",
      "constant": true
    },
    {
      "inputs": [
        {
          "internalType": "uint256",
          "name": "_tenderIndex",
          "type": "uint256"
        }
      ],
      "name": "getTenderDescription",
      "outputs": [
        {
          "internalType": "string",
          "name": "",
          "type": "string"
        }
      ],
      "stateMutability": "view",
      "type": "function",
      "constant": true
    },
    {
      "inputs": [
        {
          "internalType": "uint256",
          "name": "_tenderIndex",
          "type": "uint256"
        }
      ],
      "name": "getTenderReward",
      "outputs": [
        {
          "internalType": "uint256",
          "name": "",
          "type": "uint256"
        }
      ],
      "stateMutability": "view",
      "type": "function",
      "constant": true
    },
    {
      "inputs": [
        {
          "internalType": "uint256",
          "name": "_tenderIndex",
          "type": "uint256"
        }
      ],
      "name": "getTenderMaxParticipantsNumber",
      "outputs": [
        {
          "internalType": "uint256",
          "name": "",
          "type": "uint256"
        }
      ],
      "stateMutability": "view",
      "type": "function",
      "constant": true
    },
    {
      "inputs": [
        {
          "internalType": "uint256",
          "name": "_tenderIndex",
          "type": "uint256"
        }
      ],
      "name": "getTenderCurrentParticipantsNumber",
      "outputs": [
        {
          "internalType": "uint256",
          "name": "",
          "type": "uint256"
        }
      ],
      "stateMutability": "view",
      "type": "function",
      "constant": true
    },
    {
      "inputs": [
        {
          "internalType": "uint256",
          "name": "_tenderIndex",
          "type": "uint256"
        }
      ],
      "name": "getIsReleased",
      "outputs": [
        {
          "internalType": "bool",
          "name": "",
          "type": "bool"
        }
      ],
      "stateMutability": "view",
      "type": "function",
      "constant": true
    }
  ],
  "bytecode": "0x608060405260006003553480156200001657600080fd5b50604051620037303803806200373083398181016040528101906200003c9190620000a1565b336000806101000a81548173ffffffffffffffffffffffffffffffffffffffff021916908373ffffffffffffffffffffffffffffffffffffffff1602179055508060018190555050620000f1565b6000815190506200009b81620000d7565b92915050565b600060208284031215620000b457600080fd5b6000620000c4848285016200008a565b91505092915050565b6000819050919050565b620000e281620000cd565b8114620000ee57600080fd5b50565b61362f80620001016000396000f3fe6080604052600436106100fe5760003560e01c80637174ce7b11610095578063accb2c8411610064578063accb2c841461036b578063c9c0f1f2146103a8578063d927ee88146103d3578063e12dc207146103ef578063f5a63fef1461042c576100fe565b80637174ce7b1461029f5780637a6eaa54146102c8578063921ef55a146102f15780639f9dae901461032e576100fe565b80632d6db009116100d15780632d6db009146101d05780633be7d464146101fb5780634129b2c914610224578063428b48f014610262576100fe565b806302d947ef1461010357806305e49d1d1461012c57806311935b09146101555780631fff284c14610192575b600080fd5b34801561010f57600080fd5b5061012a60048036038101906101259190612460565b610469565b005b34801561013857600080fd5b50610153600480360381019061014e9190612437565b61087a565b005b34801561016157600080fd5b5061017c60048036038101906101779190612437565b610cd5565b6040516101899190612fb5565b60405180910390f35b34801561019e57600080fd5b506101b960048036038101906101b49190612437565b610dc1565b6040516101c7929190612f63565b60405180910390f35b3480156101dc57600080fd5b506101e561120b565b6040516101f29190613317565b60405180910390f35b34801561020757600080fd5b50610222600480360381019061021d919061249c565b611211565b005b34801561023057600080fd5b5061024b60048036038101906102469190612437565b6115f7565b604051610259929190612f33565b60405180910390f35b34801561026e57600080fd5b5061028960048036038101906102849190612437565b61176e565b6040516102969190613317565b60405180910390f35b3480156102ab57600080fd5b506102c660048036038101906102c19190612437565b6117d2565b005b3480156102d457600080fd5b506102ef60048036038101906102ea9190612460565b6118f4565b005b3480156102fd57600080fd5b5061031860048036038101906103139190612437565b611bae565b6040516103259190612fb5565b60405180910390f35b34801561033a57600080fd5b5061035560048036038101906103509190612437565b611c9a565b6040516103629190612f18565b60405180910390f35b34801561037757600080fd5b50610392600480360381019061038d9190612437565b611d1e565b60405161039f9190612f9a565b60405180910390f35b3480156103b457600080fd5b506103bd611d8f565b6040516103ca9190613317565b60405180910390f35b6103ed60048036038101906103e8919061239c565b611d95565b005b3480156103fb57600080fd5b5061041660048036038101906104119190612437565b6120aa565b6040516104239190613317565b60405180910390f35b34801561043857600080fd5b50610453600480360381019061044e9190612437565b61210e565b6040516104609190613317565b60405180910390f35b6000600260008481526020019081526020016000209050600073ffffffffffffffffffffffffffffffffffffffff1681600c0160000160009054906101000a900473ffffffffffffffffffffffffffffffffffffffff1673ffffffffffffffffffffffffffffffffffffffff1614610516576040517f08c379a000000000000000000000000000000000000000000000000000000000815260040161050d90613257565b60405180910390fd5b806003015481600501541461052a57600080fd5b60003373ffffffffffffffffffffffffffffffffffffffff168260000160009054906101000a900473ffffffffffffffffffffffffffffffffffffffff1673ffffffffffffffffffffffffffffffffffffffff16141561058957600190505b60005b8260070154811015610619573373ffffffffffffffffffffffffffffffffffffffff1683600601600083815260200190815260200160002060009054906101000a900473ffffffffffffffffffffffffffffffffffffffff1673ffffffffffffffffffffffffffffffffffffffff16141561060657600191505b808061061190613513565b91505061058c565b508061065a576040517f08c379a000000000000000000000000000000000000000000000000000000000815260040161065190612fd7565b60405180910390fd5b600080600090505b83600501548110156106f2578473ffffffffffffffffffffffffffffffffffffffff1684600401600083815260200190815260200160002060000160009054906101000a900473ffffffffffffffffffffffffffffffffffffffff1673ffffffffffffffffffffffffffffffffffffffff1614156106df57600191505b80806106ea90613513565b915050610662565b5080610733576040517f08c379a000000000000000000000000000000000000000000000000000000000815260040161072a906130b7565b60405180910390fd5b8260080160003373ffffffffffffffffffffffffffffffffffffffff1673ffffffffffffffffffffffffffffffffffffffff16815260200190815260200160002060009054906101000a900460ff16156107c2576040517f08c379a00000000000000000000000000000000000000000000000000000000081526004016107b9906132f7565b60405180910390fd5b82600a0160008573ffffffffffffffffffffffffffffffffffffffff1673ffffffffffffffffffffffffffffffffffffffff168152602001908152602001600020600081548092919061081490613513565b919050555060018360080160003373ffffffffffffffffffffffffffffffffffffffff1673ffffffffffffffffffffffffffffffffffffffff16815260200190815260200160002060006101000a81548160ff0219169083151502179055505050505050565b60006002600083815260200190815260200160002090503373ffffffffffffffffffffffffffffffffffffffff168160000160009054906101000a900473ffffffffffffffffffffffffffffffffffffffff1673ffffffffffffffffffffffffffffffffffffffff1614610923576040517f08c379a000000000000000000000000000000000000000000000000000000000815260040161091a906131f7565b60405180910390fd5b60005b8160070154811015610a085781600801600083600601600084815260200190815260200160002060009054906101000a900473ffffffffffffffffffffffffffffffffffffffff1673ffffffffffffffffffffffffffffffffffffffff1673ffffffffffffffffffffffffffffffffffffffff16815260200190815260200160002060009054906101000a900460ff166109f5576040517f08c379a00000000000000000000000000000000000000000000000000000000081526004016109ec90613297565b60405180910390fd5b8080610a0090613513565b915050610926565b5060008060005b8360050154811015610abc57600084600a01600086600401600085815260200190815260200160002060000160009054906101000a900473ffffffffffffffffffffffffffffffffffffffff1673ffffffffffffffffffffffffffffffffffffffff1673ffffffffffffffffffffffffffffffffffffffff16815260200190815260200160002054905083811115610aa8578093508192505b508080610ab490613513565b915050610a0f565b5082600401600082815260200190815260200160002083600c016000820160009054906101000a900473ffffffffffffffffffffffffffffffffffffffff168160000160006101000a81548173ffffffffffffffffffffffffffffffffffffffff021916908373ffffffffffffffffffffffffffffffffffffffff1602179055506001820181600101908054610b51906134e1565b610b5c929190612172565b50905050600073ffffffffffffffffffffffffffffffffffffffff1683600c0160000160009054906101000a900473ffffffffffffffffffffffffffffffffffffffff1673ffffffffffffffffffffffffffffffffffffffff161415610bf7576040517f08c379a0000000000000000000000000000000000000000000000000000000008152600401610bee90613157565b60405180910390fd5b600083600c0160000160009054906101000a900473ffffffffffffffffffffffffffffffffffffffff1673ffffffffffffffffffffffffffffffffffffffff168460090154604051610c4890612f03565b60006040518083038185875af1925050503d8060008114610c85576040519150601f19603f3d011682016040523d82523d6000602084013e610c8a565b606091505b5050905080610cce576040517f08c379a0000000000000000000000000000000000000000000000000000000008152600401610cc590613217565b60405180910390fd5b5050505050565b60606003548210610d1b576040517f08c379a0000000000000000000000000000000000000000000000000000000008152600401610d1290613237565b60405180910390fd5b600260008381526020019081526020016000206001018054610d3c906134e1565b80601f0160208091040260200160405190810160405280929190818152602001828054610d68906134e1565b8015610db55780601f10610d8a57610100808354040283529160200191610db5565b820191906000526020600020905b815481529060010190602001808311610d9857829003601f168201915b50505050509050919050565b606080600060026000858152602001908152602001600020905060003373ffffffffffffffffffffffffffffffffffffffff168260000160009054906101000a900473ffffffffffffffffffffffffffffffffffffffff1673ffffffffffffffffffffffffffffffffffffffff161415610e3a57600190505b60005b8260070154811015610eca573373ffffffffffffffffffffffffffffffffffffffff1683600601600083815260200190815260200160002060009054906101000a900473ffffffffffffffffffffffffffffffffffffffff1673ffffffffffffffffffffffffffffffffffffffff161415610eb757600191505b8080610ec290613513565b915050610e3d565b5080610f0b576040517f08c379a0000000000000000000000000000000000000000000000000000000008152600401610f0290613017565b60405180910390fd5b8160030154826005015414610f55576040517f08c379a0000000000000000000000000000000000000000000000000000000008152600401610f4c906130f7565b60405180910390fd5b6000826005015467ffffffffffffffff811115610f9b577f4e487b7100000000000000000000000000000000000000000000000000000000600052604160045260246000fd5b604051908082528060200260200182016040528015610fc95781602001602082028036833780820191505090505b5090506000836005015467ffffffffffffffff811115611012577f4e487b7100000000000000000000000000000000000000000000000000000000600052604160045260246000fd5b60405190808252806020026020018201604052801561104557816020015b60608152602001906001900390816110305790505b50905060005b84600501548110156111fb5784600401600082815260200190815260200160002060000160009054906101000a900473ffffffffffffffffffffffffffffffffffffffff168382815181106110c9577f4e487b7100000000000000000000000000000000000000000000000000000000600052603260045260246000fd5b602002602001019073ffffffffffffffffffffffffffffffffffffffff16908173ffffffffffffffffffffffffffffffffffffffff16815250508460040160008281526020019081526020016000206001018054611126906134e1565b80601f0160208091040260200160405190810160405280929190818152602001828054611152906134e1565b801561119f5780601f106111745761010080835404028352916020019161119f565b820191906000526020600020905b81548152906001019060200180831161118257829003601f168201915b50505050508282815181106111dd577f4e487b7100000000000000000000000000000000000000000000000000000000600052603260045260246000fd5b602002602001018190525080806111f390613513565b91505061104b565b5081819550955050505050915091565b60035481565b60006002600085815260200190815260200160002090506001151581600b0160009054906101000a900460ff16151514611280576040517f08c379a0000000000000000000000000000000000000000000000000000000008152600401611277906132b7565b60405180910390fd5b3373ffffffffffffffffffffffffffffffffffffffff168160000160009054906101000a900473ffffffffffffffffffffffffffffffffffffffff1673ffffffffffffffffffffffffffffffffffffffff161415611313576040517f08c379a000000000000000000000000000000000000000000000000000000000815260040161130a906130d7565b60405180910390fd5b60005b81600701548110156113d9573373ffffffffffffffffffffffffffffffffffffffff1682600601600083815260200190815260200160002060009054906101000a900473ffffffffffffffffffffffffffffffffffffffff1673ffffffffffffffffffffffffffffffffffffffff1614156113c6576040517f08c379a00000000000000000000000000000000000000000000000000000000081526004016113bd906131b7565b60405180910390fd5b80806113d190613513565b915050611316565b508060030154816005015410611424576040517f08c379a000000000000000000000000000000000000000000000000000000000815260040161141b906131d7565b60405180910390fd5b60005b81600501548110156114ed573373ffffffffffffffffffffffffffffffffffffffff1682600401600083815260200190815260200160002060000160009054906101000a900473ffffffffffffffffffffffffffffffffffffffff1673ffffffffffffffffffffffffffffffffffffffff1614156114da576040517f08c379a00000000000000000000000000000000000000000000000000000000081526004016114d190613057565b60405180910390fd5b80806114e590613513565b915050611427565b5060405180604001604052803373ffffffffffffffffffffffffffffffffffffffff16815260200184848080601f016020809104026020016040519081016040528093929190818152602001838380828437600081840152601f19601f8201169050808301925050505050505081525081600401600083600501600081548092919061157890613513565b91905055815260200190815260200160002060008201518160000160006101000a81548173ffffffffffffffffffffffffffffffffffffffff021916908373ffffffffffffffffffffffffffffffffffffffff16021790555060208201518160010190805190602001906115ed9291906121ff565b5090505050505050565b600060606000600260008581526020019081526020016000209050600073ffffffffffffffffffffffffffffffffffffffff1681600c0160000160009054906101000a900473ffffffffffffffffffffffffffffffffffffffff1673ffffffffffffffffffffffffffffffffffffffff1614156116a9576040517f08c379a00000000000000000000000000000000000000000000000000000000081526004016116a090613077565b60405180910390fd5b80600c0160000160009054906101000a900473ffffffffffffffffffffffffffffffffffffffff1681600c016001018080546116e4906134e1565b80601f0160208091040260200160405190810160405280929190818152602001828054611710906134e1565b801561175d5780601f106117325761010080835404028352916020019161175d565b820191906000526020600020905b81548152906001019060200180831161174057829003601f168201915b505050505090509250925050915091565b600060035482106117b4576040517f08c379a00000000000000000000000000000000000000000000000000000000081526004016117ab90613237565b60405180910390fd5b60026000838152602001908152602001600020600501549050919050565b60006002600083815260200190815260200160002090503373ffffffffffffffffffffffffffffffffffffffff168160000160009054906101000a900473ffffffffffffffffffffffffffffffffffffffff1673ffffffffffffffffffffffffffffffffffffffff161461187b576040517f08c379a000000000000000000000000000000000000000000000000000000000815260040161187290613037565b60405180910390fd5b6000151581600b0160009054906101000a900460ff161515146118d3576040517f08c379a00000000000000000000000000000000000000000000000000000000081526004016118ca90613277565b60405180910390fd5b600181600b0160006101000a81548160ff0219169083151502179055505050565b60006002600084815260200190815260200160002090506002600084815260200190815260200160002060000160009054906101000a900473ffffffffffffffffffffffffffffffffffffffff1673ffffffffffffffffffffffffffffffffffffffff163373ffffffffffffffffffffffffffffffffffffffff16146119af576040517f08c379a00000000000000000000000000000000000000000000000000000000081526004016119a690613037565b60405180910390fd5b6000151581600b0160009054906101000a900460ff16151514611a07576040517f08c379a00000000000000000000000000000000000000000000000000000000081526004016119fe90612ff7565b60405180910390fd5b8173ffffffffffffffffffffffffffffffffffffffff163373ffffffffffffffffffffffffffffffffffffffff161415611a76576040517f08c379a0000000000000000000000000000000000000000000000000000000008152600401611a6d90613117565b60405180910390fd5b60005b8160070154811015611b3c578273ffffffffffffffffffffffffffffffffffffffff1682600601600083815260200190815260200160002060009054906101000a900473ffffffffffffffffffffffffffffffffffffffff1673ffffffffffffffffffffffffffffffffffffffff161415611b29576040517f08c379a0000000000000000000000000000000000000000000000000000000008152600401611b2090613137565b60405180910390fd5b8080611b3490613513565b915050611a79565b5081816006016000836007016000815480929190611b5990613513565b91905055815260200190815260200160002060006101000a81548173ffffffffffffffffffffffffffffffffffffffff021916908373ffffffffffffffffffffffffffffffffffffffff160217905550505050565b60606003548210611bf4576040517f08c379a0000000000000000000000000000000000000000000000000000000008152600401611beb90613237565b60405180910390fd5b600260008381526020019081526020016000206002018054611c15906134e1565b80601f0160208091040260200160405190810160405280929190818152602001828054611c41906134e1565b8015611c8e5780601f10611c6357610100808354040283529160200191611c8e565b820191906000526020600020905b815481529060010190602001808311611c7157829003601f168201915b50505050509050919050565b60006003548210611ce0576040517f08c379a0000000000000000000000000000000000000000000000000000000008152600401611cd790613237565b60405180910390fd5b6002600083815260200190815260200160002060000160009054906101000a900473ffffffffffffffffffffffffffffffffffffffff169050919050565b60006003548210611d64576040517f08c379a0000000000000000000000000000000000000000000000000000000008152600401611d5b90613237565b60405180910390fd5b60026000838152602001908152602001600020600b0160009054906101000a900460ff169050919050565b60015481565b60008211611dd8576040517f08c379a0000000000000000000000000000000000000000000000000000000008152600401611dcf90613097565b60405180910390fd5b600060015482611de891906133dc565b905080341015611e2d576040517f08c379a0000000000000000000000000000000000000000000000000000000008152600401611e24906132d7565b60405180910390fd5b60006002600060036000815480929190611e4690613513565b9190505581526020019081526020016000209050338160000160006101000a81548173ffffffffffffffffffffffffffffffffffffffff021916908373ffffffffffffffffffffffffffffffffffffffff1602179055508787826001019190611eb0929190612285565b508585826002019190611ec4929190612285565b508381600301819055508281600901819055506000816005018190555060008160070181905550600081600b0160006101000a81548160ff02191690831515021790555060008060009054906101000a900473ffffffffffffffffffffffffffffffffffffffff1673ffffffffffffffffffffffffffffffffffffffff16600154604051611f5190612f03565b60006040518083038185875af1925050503d8060008114611f8e576040519150601f19603f3d011682016040523d82523d6000602084013e611f93565b606091505b5050905080611fd7576040517f08c379a0000000000000000000000000000000000000000000000000000000008152600401611fce90613197565b60405180910390fd5b60008334611fe59190613432565b9050600081111561209e5760003373ffffffffffffffffffffffffffffffffffffffff168260405161201690612f03565b60006040518083038185875af1925050503d8060008114612053576040519150601f19603f3d011682016040523d82523d6000602084013e612058565b606091505b505090508061209c576040517f08c379a000000000000000000000000000000000000000000000000000000000815260040161209390613177565b60405180910390fd5b505b50505050505050505050565b600060035482106120f0576040517f08c379a00000000000000000000000000000000000000000000000000000000081526004016120e790613237565b60405180910390fd5b60026000838152602001908152602001600020600901549050919050565b60006003548210612154576040517f08c379a000000000000000000000000000000000000000000000000000000000815260040161214b90613237565b60405180910390fd5b60026000838152602001908152602001600020600301549050919050565b82805461217e906134e1565b90600052602060002090601f0160209004810192826121a057600085556121ee565b82601f106121b157805485556121ee565b828001600101855582156121ee57600052602060002091601f016020900482015b828111156121ed5782548255916001019190600101906121d2565b5b5090506121fb919061230b565b5090565b82805461220b906134e1565b90600052602060002090601f01602090048101928261222d5760008555612274565b82601f1061224657805160ff1916838001178555612274565b82800160010185558215612274579182015b82811115612273578251825591602001919060010190612258565b5b509050612281919061230b565b5090565b828054612291906134e1565b90600052602060002090601f0160209004810192826122b357600085556122fa565b82601f106122cc57803560ff19168380011785556122fa565b828001600101855582156122fa579182015b828111156122f95782358255916020019190600101906122de565b5b509050612307919061230b565b5090565b5b8082111561232457600081600090555060010161230c565b5090565b600081359050612337816135cb565b92915050565b60008083601f84011261234f57600080fd5b8235905067ffffffffffffffff81111561236857600080fd5b60208301915083600182028301111561238057600080fd5b9250929050565b600081359050612396816135e2565b92915050565b600080600080600080608087890312156123b557600080fd5b600087013567ffffffffffffffff8111156123cf57600080fd5b6123db89828a0161233d565b9650965050602087013567ffffffffffffffff8111156123fa57600080fd5b61240689828a0161233d565b9450945050604061241989828a01612387565b925050606061242a89828a01612387565b9150509295509295509295565b60006020828403121561244957600080fd5b600061245784828501612387565b91505092915050565b6000806040838503121561247357600080fd5b600061248185828601612387565b925050602061249285828601612328565b9150509250929050565b6000806000604084860312156124b157600080fd5b60006124bf86828701612387565b935050602084013567ffffffffffffffff8111156124dc57600080fd5b6124e88682870161233d565b92509250509250925092565b60006125008383612520565b60208301905092915050565b60006125188383612620565b905092915050565b61252981613466565b82525050565b61253881613466565b82525050565b600061254982613352565b612553818561338d565b935061255e83613332565b8060005b8381101561258f57815161257688826124f4565b975061258183613373565b925050600181019050612562565b5085935050505092915050565b60006125a78261335d565b6125b1818561339e565b9350836020820285016125c385613342565b8060005b858110156125ff57848403895281516125e0858261250c565b94506125eb83613380565b925060208a019950506001810190506125c7565b50829750879550505050505092915050565b61261a81613478565b82525050565b600061262b82613368565b61263581856133ba565b93506126458185602086016134ae565b61264e816135ba565b840191505092915050565b600061266482613368565b61266e81856133cb565b935061267e8185602086016134ae565b612687816135ba565b840191505092915050565b600061269f601e836133cb565b91507f596f7520617265206e6f742076616c6964207573657220746f20766f746500006000830152602082019050919050565b60006126df6046836133cb565b91507f596f752063616e206e6f742061646420636f6d6d6974696f6e2070617274696360008301527f6970616e7473207768656e2074656e64657220697320616c726561647920726560208301527f6c656173656400000000000000000000000000000000000000000000000000006040830152606082019050919050565b600061276b6017836133cb565b91507f596f757220617265206e6f742076616c696420757365720000000000000000006000830152602082019050919050565b60006127ab601d836133cb565b91507f596f7520617265206e6f7420746869732074656e646572206f776e65720000006000830152602082019050919050565b60006127eb6026836133cb565b91507f4f6e6520757365722063616e206e6f742070617274696369706174652074776f60008301527f2074696d657300000000000000000000000000000000000000000000000000006020830152604082019050919050565b6000612851601d836133cb565b91507f57696e6e6572206973206e6f7420616c72656164792063686f6f7365640000006000830152602082019050919050565b6000612891602d836133cb565b91507f4d6178207061727469636970616e7473206e756d6265722073686f756c64206260008301527f65206d6f7265207468616e2030000000000000000000000000000000000000006020830152604082019050919050565b60006128f7602c836133cb565b91507f576865726520617265206e6f2073756368207061727469636970616e7420696e60008301527f20746869732074656e64657200000000000000000000000000000000000000006020830152604082019050919050565b600061295d602a836133cb565b91507f54656e646572206f776e65722063616e206e6f7420706172746963697061746560008301527f20696e2074656e646572000000000000000000000000000000000000000000006020830152604082019050919050565b60006129c3603b836133cb565b91507f596f752063616e206e6f7420676574206f6666657273207768656e207061727460008301527f6963697061746573206e756d626572206973206e6f742066756c6c00000000006020830152604082019050919050565b6000612a29603a836133cb565b91507f54656e646572206f776e65722063616e206e6f74206265207772697474656e2060008301527f6c696b6520636f6d6d6974696f6e207061727469636970616e740000000000006020830152604082019050919050565b6000612a8f6036836133cb565b91507f54686973206164647265737320616c72656479207772697474656e206c696b6560008301527f20636f6d6d6974696f6e207061727469636970616e74000000000000000000006020830152604082019050919050565b6000612af5601f836133cb565b91507f4572726f722c2077696e6e65722068617665207a65726f2061646472657373006000830152602082019050919050565b6000612b35600d836133cb565b91507f526566756e64206661696c6564000000000000000000000000000000000000006000830152602082019050919050565b6000612b756017836133cb565b91507f45544820666565207472616e73666572206661696c65640000000000000000006000830152602082019050919050565b6000612bb56034836133cb565b91507f436f6d6d6974696f6e207061727469636970616e74732063616e206e6f74207060008301527f6172746963697061746520696e2074656e6465720000000000000000000000006020830152604082019050919050565b6000612c1b601b836133cb565b91507f5061727469636970616e7473206e756d6265722069732066756c6c00000000006000830152602082019050919050565b6000612c5b6018836133cb565b91507f596f7520617265206e6f742074656e646572206f776e657200000000000000006000830152602082019050919050565b6000612c9b6000836133af565b9150600082019050919050565b6000612cb56013836133cb565b91507f455448207472616e73666572206661696c6564000000000000000000000000006000830152602082019050919050565b6000612cf56015836133cb565b91507f54656e64657220646f6573206e6f7420657869737400000000000000000000006000830152602082019050919050565b6000612d356025836133cb565b91507f596f752063616e206e6f7420766f7465207768656e2077696e6e65722069732060008301527f63686f73650000000000000000000000000000000000000000000000000000006020830152604082019050919050565b6000612d9b6017836133cb565b91507f54656e64657220616c72656164792072656c65617365640000000000000000006000830152602082019050919050565b6000612ddb6029836133cb565b91507f4e6f7420616c6c20636f6d6d6974696f6e207061727469636970616e7473206860008301527f61766520766f74656400000000000000000000000000000000000000000000006020830152604082019050919050565b6000612e416016836133cb565b91507f54656e646572206973206e6f742072656c6561736564000000000000000000006000830152602082019050919050565b6000612e816014836133cb565b91507f4e6f7420656e6f75676874204554482073656e740000000000000000000000006000830152602082019050919050565b6000612ec16016836133cb565b91507f596f75206861766520616c726561647920766f746564000000000000000000006000830152602082019050919050565b612efd816134a4565b82525050565b6000612f0e82612c8e565b9150819050919050565b6000602082019050612f2d600083018461252f565b92915050565b6000604082019050612f48600083018561252f565b8181036020830152612f5a8184612659565b90509392505050565b60006040820190508181036000830152612f7d818561253e565b90508181036020830152612f91818461259c565b90509392505050565b6000602082019050612faf6000830184612611565b92915050565b60006020820190508181036000830152612fcf8184612659565b905092915050565b60006020820190508181036000830152612ff081612692565b9050919050565b60006020820190508181036000830152613010816126d2565b9050919050565b600060208201905081810360008301526130308161275e565b9050919050565b600060208201905081810360008301526130508161279e565b9050919050565b60006020820190508181036000830152613070816127de565b9050919050565b6000602082019050818103600083015261309081612844565b9050919050565b600060208201905081810360008301526130b081612884565b9050919050565b600060208201905081810360008301526130d0816128ea565b9050919050565b600060208201905081810360008301526130f081612950565b9050919050565b60006020820190508181036000830152613110816129b6565b9050919050565b6000602082019050818103600083015261313081612a1c565b9050919050565b6000602082019050818103600083015261315081612a82565b9050919050565b6000602082019050818103600083015261317081612ae8565b9050919050565b6000602082019050818103600083015261319081612b28565b9050919050565b600060208201905081810360008301526131b081612b68565b9050919050565b600060208201905081810360008301526131d081612ba8565b9050919050565b600060208201905081810360008301526131f081612c0e565b9050919050565b6000602082019050818103600083015261321081612c4e565b9050919050565b6000602082019050818103600083015261323081612ca8565b9050919050565b6000602082019050818103600083015261325081612ce8565b9050919050565b6000602082019050818103600083015261327081612d28565b9050919050565b6000602082019050818103600083015261329081612d8e565b9050919050565b600060208201905081810360008301526132b081612dce565b9050919050565b600060208201905081810360008301526132d081612e34565b9050919050565b600060208201905081810360008301526132f081612e74565b9050919050565b6000602082019050818103600083015261331081612eb4565b9050919050565b600060208201905061332c6000830184612ef4565b92915050565b6000819050602082019050919050565b6000819050602082019050919050565b600081519050919050565b600081519050919050565b600081519050919050565b6000602082019050919050565b6000602082019050919050565b600082825260208201905092915050565b600082825260208201905092915050565b600081905092915050565b600082825260208201905092915050565b600082825260208201905092915050565b60006133e7826134a4565b91506133f2836134a4565b9250827fffffffffffffffffffffffffffffffffffffffffffffffffffffffffffffffff038211156134275761342661355c565b5b828201905092915050565b600061343d826134a4565b9150613448836134a4565b92508282101561345b5761345a61355c565b5b828203905092915050565b600061347182613484565b9050919050565b60008115159050919050565b600073ffffffffffffffffffffffffffffffffffffffff82169050919050565b6000819050919050565b60005b838110156134cc5780820151818401526020810190506134b1565b838111156134db576000848401525b50505050565b600060028204905060018216806134f957607f821691505b6020821081141561350d5761350c61358b565b5b50919050565b600061351e826134a4565b91507fffffffffffffffffffffffffffffffffffffffffffffffffffffffffffffffff8214156135515761355061355c565b5b600182019050919050565b7f4e487b7100000000000000000000000000000000000000000000000000000000600052601160045260246000fd5b7f4e487b7100000000000000000000000000000000000000000000000000000000600052602260045260246000fd5b6000601f19601f8301169050919050565b6135d481613466565b81146135df57600080fd5b50565b6135eb816134a4565b81146135f657600080fd5b5056fea2646970667358221220f7aed48b5cc10a10935b16e6ae38583e08a8c1346eaebbb5cf55bc888a36b4a264736f6c63430008000033",
  "immutableReferences": {},
  "source": "// SPDX-License-Identifier: MIT\r\npragma solidity ^0.8.0;\r\n\r\ncontract TenderSpace {\r\n    address private tenderSpaceOwner;\r\n    uint public tenderFee;\r\n\r\n    struct Participant {\r\n        address itsAddress;\r\n        string offer;\r\n    }\r\n\r\n    struct Tender {\r\n        address tenderOwner;\r\n        string title;\r\n        string description;\r\n        uint maxParticipantsNumber;\r\n        //Participant [] participants;\r\n        mapping(uint => Participant) participants;\r\n        uint currentParticipantsNumber;\r\n        mapping(uint => address) commitionParticipants;\r\n        uint commitionParticipantsNumber;\r\n        mapping(address => bool) userVoted;\r\n        uint reward;\r\n        //uint [] votingResults;\r\n        mapping(address => uint) votingResults;\r\n        bool isReleased;\r\n        Participant winner;\r\n    }\r\n\r\n    mapping(uint => Tender) Tenders;\r\n    uint public nextTenderIndex = 0;\r\n\r\n    constructor(uint _tenderFee) {\r\n        tenderSpaceOwner = msg.sender;\r\n        tenderFee = _tenderFee;\r\n    }\r\n\r\n    function createTender(\r\n        string calldata _title,\r\n        string calldata _description,\r\n        uint _maxParticipantsNumber,\r\n        uint _reward\r\n    ) public payable {\r\n        require(\r\n            _maxParticipantsNumber > 0,\r\n            \"Max participants number should be more than 0\"\r\n        );\r\n        uint requiredAmount = _reward + tenderFee;\r\n        require(msg.value >= requiredAmount, \"Not enought ETH sent\");\r\n\r\n        Tender storage newTender = Tenders[nextTenderIndex++];\r\n        newTender.tenderOwner = msg.sender;\r\n        newTender.title = _title;\r\n        newTender.description = _description;\r\n        newTender.maxParticipantsNumber = _maxParticipantsNumber;\r\n        newTender.reward = _reward;\r\n        newTender.currentParticipantsNumber = 0;\r\n        newTender.commitionParticipantsNumber = 0;\r\n        newTender.isReleased = false;\r\n\r\n        (bool feeSuccess, ) = payable(tenderSpaceOwner).call{value: tenderFee}(\r\n            \"\"\r\n        );\r\n        require(feeSuccess, \"ETH fee transfer failed\");\r\n\r\n        uint refund = msg.value - requiredAmount;\r\n        if (refund > 0) {\r\n            (bool refundSuccess, ) = payable(msg.sender).call{value: refund}(\r\n                \"\"\r\n            );\r\n            require(refundSuccess, \"Refund failed\");\r\n        }\r\n    }\r\n\r\n    function addCommitionParticipant(\r\n        uint _tenderIndex,\r\n        address _participant\r\n    ) public {\r\n        Tender storage tender = Tenders[_tenderIndex];\r\n        require(\r\n            msg.sender == Tenders[_tenderIndex].tenderOwner,\r\n            \"You are not this tender owner\"\r\n        );\r\n        require(\r\n            tender.isReleased == false,\r\n            \"You can not add commition participants when tender is already released\"\r\n        );\r\n        require(\r\n            msg.sender != _participant,\r\n            \"Tender owner can not be written like commition participant\"\r\n        );\r\n        for (uint i = 0; i < tender.commitionParticipantsNumber; i++) {\r\n            require(\r\n                tender.commitionParticipants[i] != _participant,\r\n                \"This address alredy written like commition participant\"\r\n            );\r\n        }\r\n\r\n        tender.commitionParticipants[\r\n            tender.commitionParticipantsNumber++\r\n        ] = _participant;\r\n    }\r\n\r\n    function releaseTender(uint _tenderIndex) public {\r\n        Tender storage tender = Tenders[_tenderIndex];\r\n        require(\r\n            tender.tenderOwner == msg.sender,\r\n            \"You are not this tender owner\"\r\n        );\r\n        require(tender.isReleased == false, \"Tender already released\");\r\n        tender.isReleased = true;\r\n    }\r\n\r\n    function participate(uint _tenderIndex, string calldata offer) public {\r\n        Tender storage tender = Tenders[_tenderIndex];\r\n        require(tender.isReleased == true, \"Tender is not released\");\r\n        require(\r\n            tender.tenderOwner != msg.sender,\r\n            \"Tender owner can not participate in tender\"\r\n        );\r\n        for (uint i = 0; i < tender.commitionParticipantsNumber; i++) {\r\n            require(\r\n                tender.commitionParticipants[i] != msg.sender,\r\n                \"Commition participants can not participate in tender\"\r\n            );\r\n        }\r\n        require(\r\n            tender.currentParticipantsNumber < tender.maxParticipantsNumber,\r\n            \"Participants number is full\"\r\n        );\r\n\r\n        for (uint i = 0; i < tender.currentParticipantsNumber; i++) {\r\n            require(\r\n                tender.participants[i].itsAddress != msg.sender,\r\n                \"One user can not participate two times\"\r\n            );\r\n        }\r\n\r\n        tender.participants[tender.currentParticipantsNumber++] = Participant(\r\n            msg.sender,\r\n            offer\r\n        );\r\n    }\r\n\r\n    function getTenderOffers(\r\n        uint _tenderIndex\r\n    ) public view returns (address[] memory, string[] memory) {\r\n        Tender storage tender = Tenders[_tenderIndex];\r\n        bool validUser = false;\r\n\r\n        if (tender.tenderOwner == msg.sender) {\r\n            validUser = true;\r\n        }\r\n        for (uint i = 0; i < tender.commitionParticipantsNumber; i++) {\r\n            if (tender.commitionParticipants[i] == msg.sender) {\r\n                validUser = true;\r\n            }\r\n        }\r\n        require(validUser, \"Your are not valid user\");\r\n        require(\r\n            tender.currentParticipantsNumber == tender.maxParticipantsNumber,\r\n            \"You can not get offers when participates number is not full\"\r\n        );\r\n\r\n        address[] memory participantsAddresses = new address[](\r\n            tender.currentParticipantsNumber\r\n        );\r\n        string[] memory participantsOffers = new string[](\r\n            tender.currentParticipantsNumber\r\n        );\r\n\r\n        for (uint i = 0; i < tender.currentParticipantsNumber; i++) {\r\n            participantsAddresses[i] = tender.participants[i].itsAddress;\r\n            participantsOffers[i] = tender.participants[i].offer;\r\n        }\r\n        return (participantsAddresses, participantsOffers);\r\n    }\r\n\r\n    function vote(uint _tenderIndex, address _participantAddress) public {\r\n        Tender storage tender = Tenders[_tenderIndex];\r\n        require(\r\n            tender.winner.itsAddress == address(0),\r\n            \"You can not vote when winner is chose\"\r\n        );\r\n        require(\r\n            tender.currentParticipantsNumber == tender.maxParticipantsNumber\r\n        );\r\n\r\n        //bool userIsTenderOwner = false;\r\n        bool validUser = false;\r\n        if (tender.tenderOwner == msg.sender) {\r\n            validUser = true;\r\n            //userIsTenderOwner = true;\r\n        }\r\n        for (uint i = 0; i < tender.commitionParticipantsNumber; i++) {\r\n            if (tender.commitionParticipants[i] == msg.sender) {\r\n                validUser = true;\r\n            }\r\n        }\r\n        require(validUser, \"You are not valid user to vote\");\r\n\r\n        bool correctParticipantAddress;\r\n        for (uint i = 0; i < tender.currentParticipantsNumber; i++) {\r\n            if (tender.participants[i].itsAddress == _participantAddress) {\r\n                correctParticipantAddress = true;\r\n            }\r\n        }\r\n        require(\r\n            correctParticipantAddress,\r\n            \"Where are no such participant in this tender\"\r\n        );\r\n\r\n        require(!tender.userVoted[msg.sender], \"You have already voted\");\r\n\r\n        tender.votingResults[_participantAddress]++;\r\n        tender.userVoted[msg.sender] = true;\r\n    }\r\n\r\n    function findWinner(uint _tenderIndex) public {\r\n        Tender storage tender = Tenders[_tenderIndex];\r\n        require(tender.tenderOwner == msg.sender, \"You are not tender owner\");\r\n\r\n        for (uint i = 0; i < tender.commitionParticipantsNumber; i++) {\r\n            require(\r\n                tender.userVoted[tender.commitionParticipants[i]],\r\n                \"Not all commition participants have voted\"\r\n            );\r\n        }\r\n\r\n        uint maxVotes = 0;\r\n        uint winnerIndex = 0;\r\n        for (uint i = 0; i < tender.currentParticipantsNumber; i++) {\r\n            uint votes = tender.votingResults[\r\n                tender.participants[i].itsAddress\r\n            ];\r\n            if (votes > maxVotes) {\r\n                maxVotes = votes;\r\n                winnerIndex = i;\r\n            }\r\n        }\r\n\r\n        tender.winner = tender.participants[winnerIndex];\r\n        require(\r\n            tender.winner.itsAddress != address(0),\r\n            \"Error, winner have zero address\"\r\n        );\r\n\r\n        (bool success, ) = payable(tender.winner.itsAddress).call{\r\n            value: tender.reward\r\n        }(\"\");\r\n        require(success, \"ETH transfer failed\");\r\n    }\r\n\r\n    function getWinner(\r\n        uint _tenderIndex\r\n    ) public view returns (address, string memory) {\r\n        Tender storage tender = Tenders[_tenderIndex];\r\n        require(\r\n            tender.winner.itsAddress != address(0),\r\n            \"Winner is not already choosed\"\r\n        );\r\n        return (tender.winner.itsAddress, tender.winner.offer);\r\n    }\r\n\r\n    function getTenderOwner(uint _tenderIndex) public view returns (address) {\r\n        require(_tenderIndex < nextTenderIndex, \"Tender does not exist\");\r\n        return Tenders[_tenderIndex].tenderOwner;\r\n    }\r\n\r\n    function getTenderTitle(\r\n        uint _tenderIndex\r\n    ) public view returns (string memory) {\r\n        require(_tenderIndex < nextTenderIndex, \"Tender does not exist\");\r\n        return Tenders[_tenderIndex].title;\r\n    }\r\n\r\n    function getTenderDescription(\r\n        uint _tenderIndex\r\n    ) public view returns (string memory) {\r\n        require(_tenderIndex < nextTenderIndex, \"Tender does not exist\");\r\n        return Tenders[_tenderIndex].description;\r\n    }\r\n\r\n    function getTenderReward(uint _tenderIndex) public view returns (uint) {\r\n        require(_tenderIndex < nextTenderIndex, \"Tender does not exist\");\r\n        return Tenders[_tenderIndex].reward;\r\n    }\r\n\r\n    function getTenderMaxParticipantsNumber(\r\n        uint _tenderIndex\r\n    ) public view returns (uint) {\r\n        require(_tenderIndex < nextTenderIndex, \"Tender does not exist\");\r\n        return Tenders[_tenderIndex].maxParticipantsNumber;\r\n    }\r\n\r\n    function getTenderCurrentParticipantsNumber(\r\n        uint _tenderIndex\r\n    ) public view returns (uint) {\r\n        require(_tenderIndex < nextTenderIndex, \"Tender does not exist\");\r\n        return Tenders[_tenderIndex].currentParticipantsNumber;\r\n    }\r\n\r\n    function getIsReleased(uint _tenderIndex) public view returns (bool) {\r\n        require(_tenderIndex < nextTenderIndex, \"Tender does not exist\");\r\n        return Tenders[_tenderIndex].isReleased;\r\n    }\r\n}\r\n",
  "sourcePath": "C:\\Users\\dimap\\OneDrive\\\\Univeras\\3 semestr\\Blockchain\\TenderApp\\contracts\\TenderSpace.sol",
  "compiler": {
    "name": "solc",
    "version": "0.8.0+commit.c7dfd78e.Emscripten.clang"
  },
  "schemaVersion": "3.4.16",
  "updatedAt": "2025-12-17T21:44:48.260Z",
  "networkType": "ethereum",
  "devdoc": {
    "kind": "dev",
    "methods": {},
    "version": 1
  },
  "userdoc": {
    "kind": "user",
    "methods": {},
    "version": 1
  }
}